{
  "_format": "hh-sol-artifact-1",
  "contractName": "HuellaNativa",
  "sourceName": "contracts/HuellaNativa.sol",
  "abi": [
    {
      "inputs": [],
      "stateMutability": "nonpayable",
      "type": "constructor"
    },
    {
      "anonymous": false,
      "inputs": [
        {
          "indexed": true,
          "internalType": "uint256",
          "name": "idLote",
          "type": "uint256"
        },
        {
          "indexed": false,
          "internalType": "string",
          "name": "estado",
          "type": "string"
        },
        {
          "indexed": true,
          "internalType": "address",
          "name": "responsable",
          "type": "address"
        },
        {
          "indexed": false,
          "internalType": "string",
          "name": "ubicacion",
          "type": "string"
        },
        {
          "indexed": false,
          "internalType": "string",
          "name": "hashDocumentoAleph",
          "type": "string"
        },
        {
          "indexed": false,
          "internalType": "uint256",
          "name": "timestamp",
          "type": "uint256"
        }
      ],
      "name": "NuevoEstadoRegistrado",
      "type": "event"
    },
    {
      "inputs": [
        {
          "internalType": "uint256",
          "name": "_idLote",
          "type": "uint256"
        },
        {
          "internalType": "string",
          "name": "_nuevoEstado",
          "type": "string"
        },
        {
          "internalType": "string",
          "name": "_ubicacion",
          "type": "string"
        },
        {
          "internalType": "address",
          "name": "_nuevoResponsable",
          "type": "address"
        },
        {
          "internalType": "string",
          "name": "_hashAleph",
          "type": "string"
        }
      ],
      "name": "actualizarEstado",
      "outputs": [],
      "stateMutability": "nonpayable",
      "type": "function"
    },
    {
      "inputs": [],
      "name": "contadorLotes",
      "outputs": [
        {
          "internalType": "uint256",
          "name": "",
          "type": "uint256"
        }
      ],
      "stateMutability": "view",
      "type": "function"
    },
    {
      "inputs": [
        {
          "internalType": "string",
          "name": "_descripcion",
          "type": "string"
        },
        {
          "internalType": "string",
          "name": "_ubicacion",
          "type": "string"
        },
        {
          "internalType": "string",
          "name": "_hashAleph",
          "type": "string"
        }
      ],
      "name": "crearLote",
      "outputs": [],
      "stateMutability": "nonpayable",
      "type": "function"
    },
    {
      "inputs": [
        {
          "internalType": "uint256",
          "name": "",
          "type": "uint256"
        }
      ],
      "name": "inventario",
      "outputs": [
        {
          "internalType": "uint256",
          "name": "id",
          "type": "uint256"
        },
        {
          "internalType": "string",
          "name": "descripcion",
          "type": "string"
        },
        {
          "internalType": "string",
          "name": "estadoActual",
          "type": "string"
        },
        {
          "internalType": "address",
          "name": "responsableActual",
          "type": "address"
        },
        {
          "internalType": "bool",
          "name": "existe",
          "type": "bool"
        }
      ],
      "stateMutability": "view",
      "type": "function"
    },
    {
      "inputs": [],
      "name": "owner",
      "outputs": [
        {
          "internalType": "address",
          "name": "",
          "type": "address"
        }
      ],
      "stateMutability": "view",
      "type": "function"
    }
  ],
  "bytecode": "0x608060405234801561001057600080fd5b50336000806101000a81548173ffffffffffffffffffffffffffffffffffffffff021916908373ffffffffffffffffffffffffffffffffffffffff1602179055506111a4806100606000396000f3fe608060405234801561001057600080fd5b50600436106100575760003560e01c80633176e8081461005c57806350af869d1461007a5780638da5cb5b146100ae578063dcd0aeca146100cc578063f610a20a146100e8575b600080fd5b610064610104565b60405161007191906106c4565b60405180910390f35b610094600480360381019061008f919061071f565b61010a565b6040516100a5959493929190610838565b60405180910390f35b6100b661027d565b6040516100c39190610899565b60405180910390f35b6100e660048036038101906100e191906109e9565b6102a1565b005b61010260048036038101906100fd9190610abc565b6104cd565b005b60025481565b600160205280600052604060002060009150905080600001549080600101805461013390610bba565b80601f016020809104026020016040519081016040528092919081815260200182805461015f90610bba565b80156101ac5780601f10610181576101008083540402835291602001916101ac565b820191906000526020600020905b81548152906001019060200180831161018f57829003601f168201915b5050505050908060020180546101c190610bba565b80601f01602080910402602001604051908101604052809291908181526020018280546101ed90610bba565b801561023a5780601f1061020f5761010080835404028352916020019161023a565b820191906000526020600020905b81548152906001019060200180831161021d57829003601f168201915b5050505050908060030160009054906101000a900473ffffffffffffffffffffffffffffffffffffffff16908060030160149054906101000a900460ff16905085565b60008054906101000a900473ffffffffffffffffffffffffffffffffffffffff1681565b60008054906101000a900473ffffffffffffffffffffffffffffffffffffffff1673ffffffffffffffffffffffffffffffffffffffff163373ffffffffffffffffffffffffffffffffffffffff161461032f576040517f08c379a000000000000000000000000000000000000000000000000000000000815260040161032690610c5d565b60405180910390fd5b6002600081548092919061034290610cac565b91905055506040518060a0016040528060025481526020018481526020016040518060400160405280600f81526020017f4f726967656e202f2043726561646f000000000000000000000000000000000081525081526020013373ffffffffffffffffffffffffffffffffffffffff168152602001600115158152506001600060025481526020019081526020016000206000820151816000015560208201518160010190816103f29190610ea0565b5060408201518160020190816104089190610ea0565b5060608201518160030160006101000a81548173ffffffffffffffffffffffffffffffffffffffff021916908373ffffffffffffffffffffffffffffffffffffffff16021790555060808201518160030160146101000a81548160ff0219169083151502179055509050503373ffffffffffffffffffffffffffffffffffffffff166002547fc60a5bfae034982b25264ed1f7e4450a6b2c62bc595a139bf74247138aafd6798484426040516104c093929190610fbe565b60405180910390a3505050565b843373ffffffffffffffffffffffffffffffffffffffff166001600083815260200190815260200160002060030160009054906101000a900473ffffffffffffffffffffffffffffffffffffffff1673ffffffffffffffffffffffffffffffffffffffff1614610572576040517f08c379a000000000000000000000000000000000000000000000000000000000815260040161056990611088565b60405180910390fd5b6001600087815260200190815260200160002060030160149054906101000a900460ff166105d5576040517f08c379a00000000000000000000000000000000000000000000000000000000081526004016105cc906110f4565b60405180910390fd5b846001600088815260200190815260200160002060020190816105f89190610ea0565b50826001600088815260200190815260200160002060030160006101000a81548173ffffffffffffffffffffffffffffffffffffffff021916908373ffffffffffffffffffffffffffffffffffffffff1602179055503373ffffffffffffffffffffffffffffffffffffffff16867fc60a5bfae034982b25264ed1f7e4450a6b2c62bc595a139bf74247138aafd6798787864260405161069b9493929190611114565b60405180910390a3505050505050565b6000819050919050565b6106be816106ab565b82525050565b60006020820190506106d960008301846106b5565b92915050565b6000604051905090565b600080fd5b600080fd5b6106fc816106ab565b811461070757600080fd5b50565b600081359050610719816106f3565b92915050565b600060208284031215610735576107346106e9565b5b60006107438482850161070a565b91505092915050565b600081519050919050565b600082825260208201905092915050565b60005b8381101561078657808201518184015260208101905061076b565b60008484015250505050565b6000601f19601f8301169050919050565b60006107ae8261074c565b6107b88185610757565b93506107c8818560208601610768565b6107d181610792565b840191505092915050565b600073ffffffffffffffffffffffffffffffffffffffff82169050919050565b6000610807826107dc565b9050919050565b610817816107fc565b82525050565b60008115159050919050565b6108328161081d565b82525050565b600060a08201905061084d60008301886106b5565b818103602083015261085f81876107a3565b9050818103604083015261087381866107a3565b9050610882606083018561080e565b61088f6080830184610829565b9695505050505050565b60006020820190506108ae600083018461080e565b92915050565b600080fd5b600080fd5b7f4e487b7100000000000000000000000000000000000000000000000000000000600052604160045260246000fd5b6108f682610792565b810181811067ffffffffffffffff82111715610915576109146108be565b5b80604052505050565b60006109286106df565b905061093482826108ed565b919050565b600067ffffffffffffffff821115610954576109536108be565b5b61095d82610792565b9050602081019050919050565b82818337600083830152505050565b600061098c61098784610939565b61091e565b9050828152602081018484840111156109a8576109a76108b9565b5b6109b384828561096a565b509392505050565b600082601f8301126109d0576109cf6108b4565b5b81356109e0848260208601610979565b91505092915050565b600080600060608486031215610a0257610a016106e9565b5b600084013567ffffffffffffffff811115610a2057610a1f6106ee565b5b610a2c868287016109bb565b935050602084013567ffffffffffffffff811115610a4d57610a4c6106ee565b5b610a59868287016109bb565b925050604084013567ffffffffffffffff811115610a7a57610a796106ee565b5b610a86868287016109bb565b9150509250925092565b610a99816107fc565b8114610aa457600080fd5b50565b600081359050610ab681610a90565b92915050565b600080600080600060a08688031215610ad857610ad76106e9565b5b6000610ae68882890161070a565b955050602086013567ffffffffffffffff811115610b0757610b066106ee565b5b610b13888289016109bb565b945050604086013567ffffffffffffffff811115610b3457610b336106ee565b5b610b40888289016109bb565b9350506060610b5188828901610aa7565b925050608086013567ffffffffffffffff811115610b7257610b716106ee565b5b610b7e888289016109bb565b9150509295509295909350565b7f4e487b7100000000000000000000000000000000000000000000000000000000600052602260045260246000fd5b60006002820490506001821680610bd257607f821691505b602082108103610be557610be4610b8b565b5b50919050565b7f536f6c6f20656c2061646d696e6973747261646f72207075656465206372656160008201527f72206c6f74657300000000000000000000000000000000000000000000000000602082015250565b6000610c47602783610757565b9150610c5282610beb565b604082019050919050565b60006020820190508181036000830152610c7681610c3a565b9050919050565b7f4e487b7100000000000000000000000000000000000000000000000000000000600052601160045260246000fd5b6000610cb7826106ab565b91507fffffffffffffffffffffffffffffffffffffffffffffffffffffffffffffffff8203610ce957610ce8610c7d565b5b600182019050919050565b60008190508160005260206000209050919050565b60006020601f8301049050919050565b600082821b905092915050565b600060088302610d567fffffffffffffffffffffffffffffffffffffffffffffffffffffffffffffffff82610d19565b610d608683610d19565b95508019841693508086168417925050509392505050565b6000819050919050565b6000610d9d610d98610d93846106ab565b610d78565b6106ab565b9050919050565b6000819050919050565b610db783610d82565b610dcb610dc382610da4565b848454610d26565b825550505050565b600090565b610de0610dd3565b610deb818484610dae565b505050565b5b81811015610e0f57610e04600082610dd8565b600181019050610df1565b5050565b601f821115610e5457610e2581610cf4565b610e2e84610d09565b81016020851015610e3d578190505b610e51610e4985610d09565b830182610df0565b50505b505050565b600082821c905092915050565b6000610e7760001984600802610e59565b1980831691505092915050565b6000610e908383610e66565b9150826002028217905092915050565b610ea98261074c565b67ffffffffffffffff811115610ec257610ec16108be565b5b610ecc8254610bba565b610ed7828285610e13565b600060209050601f831160018114610f0a5760008415610ef8578287015190505b610f028582610e84565b865550610f6a565b601f198416610f1886610cf4565b60005b82811015610f4057848901518255600182019150602085019450602081019050610f1b565b86831015610f5d5784890151610f59601f891682610e66565b8355505b6001600288020188555050505b505050505050565b7f4f726967656e202f2043726561646f0000000000000000000000000000000000600082015250565b6000610fa8600f83610757565b9150610fb382610f72565b602082019050919050565b60006080820190508181036000830152610fd781610f9b565b90508181036020830152610feb81866107a3565b90508181036040830152610fff81856107a3565b905061100e60608301846106b5565b949350505050565b7f4e6f206572657320656c20726573706f6e7361626c652061637475616c20646560008201527f2065737465206c6f746500000000000000000000000000000000000000000000602082015250565b6000611072602a83610757565b915061107d82611016565b604082019050919050565b600060208201905081810360008301526110a181611065565b9050919050565b7f456c206c6f7465206e6f20657869737465000000000000000000000000000000600082015250565b60006110de601183610757565b91506110e9826110a8565b602082019050919050565b6000602082019050818103600083015261110d816110d1565b9050919050565b6000608082019050818103600083015261112e81876107a3565b9050818103602083015261114281866107a3565b9050818103604083015261115681856107a3565b905061116560608301846106b5565b9594505050505056fea2646970667358221220f2caf6302370a4dfad9d2c2d6dbeb5a4e9d416b2e5f7506c5415f33f9bcaf99164736f6c63430008130033",
  "linkReferences": {},
  "deployedLinkReferences": {}
}